S105FFFE3800C5
S10F380045380194CD38862703CC3821CC
S106380C45000070
S10C380F650000270AD63989D7A7
S1093818400AAF0120F19B
S106381ECC38217E
S1083821CD386320FE18
S10A3826C73FFECF3FFD3F49
S107382D206E0221E2
S1093831B621C03FFEB603
S109383720C23FFD9021B8
S109383DB620C74001B6ED
S108384321C74002CE84
S10938483FFDC63FFECD6A
S109384E38884D26015DDF
S105385427083F
S10B38565520AF01352020D3F9
S107385EBE20B621AD
S104386281E0
S10E3863AE02A6CFCD3826C74000CF30
S10D386E3FFFC64000A1CF2607C6A5
S10938783FFFA10227033B
S106387E4F2002D2
S1053881A6019A
S10538835F4F91
S104388581BD
S10438864FEE
S104388781BB
S10A3888C74004CF4003C652
S109388F4003A000900EAE
S10B38954FC04004B7254FC2E7
S109389D4003B724200AD9
S10938A3C64003B724C671
S10738A94004B725F7
S10A38ADC64001A000900ECB
S10B38B44FC04002B7274FC2C8
S10938BC4001B726200ABA
S10938C2C64001B726C652
S10738C84002B727D8
S10938CCB626C74005B654
S10838D227C74006BEFB
S10738D724B625CD1D
S10838DB38FCB723BF17
S10B38E022C64003A000900F72
S10A38E84FB023B7274FB2D4
S10738EF22B726BE14
S10738F326B6278149
S10738F7BE22B62310
S10438FB8147
S10B38FCC74008CF40074FC785
S107390440093F280B
S10C3908C64005494F494D26351E
S10C3911C64006CE40054859C722
S109391A4006CF4005C683
S10939204008C04006C689
S10A39264007C24005241014
S10C392DC64006CE40055446C70D
S10A39364006CF4005200903
S108393D3C28B628C778
S1073942400920C252
S1083946C64009B7288A
S10A394BC64008C04006C697
S10A39524007C240052512E5
S10A3959C64008C04006C788
S10939604008C64007C246
S10839664005C7400705
S10C396BC64006CE40055446C7CF
S10939744006CF40054EA1
S106397A28293ABB
S108397D283D2926C9C4
S1093982CE4007C6400818
S104398881B9
S9030000FC
